:020000040000FA
:04000000A5EF00F078
:020004000000FA
:0A000600FF0E806F816F100E806FF7
:10001000816F8007D8B412008107D8B409EF00F0CF
:100020000CEF00F083A0120016EF00F083A216EF91
:1000300000F0120083B421EF00F083B624EF00F04B
:100040001200FF0E806F1200100E806F1200010E62
:10005000816E83B865EF00F083A483A603EC00F003
:1000600006EC00F012EC00F01AEC00F0020E816ECB
:1000700083B865EF00F083A483A603EC00F006ECE0
:1000800000F012EC00F01AEC00F0040E816E83B860
:1000900065EF00F083A483A603EC00F006EC00F00B
:1000A00012EC00F01AEC00F0080E816E83B865EFD8
:1000B00000F083A483A603EC00F006EC00F012EC41
:1000C00000F01AEC00F027EF00F0010E856F080E2B
:1000D000816E83B827EF00F083A483A603EC00F0C1
:1000E00006EC00F012EC00F01AEC00F0040E816E49
:1000F00083B827EF00F083A483A603EC00F006EC9E
:1001000000F012EC00F01AEC00F0020E816E83B8E1
:1001100027EF00F083A483A603EC00F006EC00F0C8
:1001200012EC00F01AEC00F0010E816E83B827EF9C
:1001300000F083A483A603EC00F006EC00F012ECC0
:1001400000F01AEC00F065EF00F0936A958095825C
:080150009584958627EF00F06D
:020000040030CA
:0100010027D7
:010002000FEE
:010003000EEE
:0100050001F9
:010006008574
:010008000FE8
:01000900C036
:01000A000FE6
:01000B00E014
:01000C000FE4
:01000D0040B2
:00000001FF
